:020000040800F2
:10000000E83C0020AD020008252800080927000868
:1000100021280008191F00081745000800000000EB
:100020000000000000000000000000003D3B000850
:100030001D1F000800000000E9340008753C00089E
:10004000C7020008C7020008C7020008B539000847
:10005000C7020008C7020008C7020008C70200085C
:10006000C7020008C7020008C7020008C70200084C
:10007000C7020008C7020008C7020008C70200083C
:10008000C7020008C7020008C7020008C70200082C
:10009000C7020008C7020008C7020008C70200081C
:1000A000C7020008C7020008C7020008C70200080C
:1000B000D93C0008353D0008C7020008C702000807
:1000C000C7020008C7020008C7020008C7020008EC
:1000D000C7020008513F000875410008B5420008FA
:1000E00015210008AD360008C702000800F002F82C
:1000F00000F0B2F80AA090E8000C82448344AAF110
:100100000107DA4501D100F0A7F8AFF2090EBAE80D
:100110000F0013F0010F18BFFB1A43F0010318473B
:1001200040C9000060C900000A444FF0000C10F8FC
:10013000013B13F0070408BF10F8014B1D1108BF65
:1001400010F8015B641E05D010F8016B641E01F805
:10015000016BF9D113F0080F1EBF10F8014BAD1C55
:100160000C1B09D16D1E58BF01F801CBFAD505E073
:1001700014F8016B01F8016B6D1EF9D59142D6D3CD
:10018000704700000023002400250026103A28BFF5
:1001900078C1FBD8520728BF30C148BF0B607047F9
:1001A0006E2900F07984702900F0AD81662909F08C
:1001B000C182652909F0BE82672909F0BB826129E5
:1001C00009F0BA8203681B0A28BF41F0800169293F
:1001D00000F01E81642900F01B81752900F0188150
:1001E0006F2900F08087782900F07981E92900F0F3
:1001F0001B87E42900F01887F52900F01587EF29FF
:1002000000F07D87F82900F078810368DB0928BFBA
:1002100041F08001632900F08A86732900F08F86FF
:10022000E32901F08D81F32901F0928100207047CC
:100230001FB500F04CFA00F06DFF04000020002113
:1002400008F0A6FC401C60600020002108F0B6FC0D
:10025000E0601FBD10B510BD01F018FA1146FFF7A0
:10026000E7FF05F011FC01F036FA03B4FFF7F2FFE7
:1002700003BC04F0E2F900000B49D1F800C04A6861
:100280005CF8043B1068184442F8040B8C4528BF06
:10029000A1F1DC0C8A4228BFA1F1DC02C1F800C048
:1002A0004A6020F0004070477C36002009488047B3
:1002B00009480047FEE7FEE7FEE7FEE7FEE7FEE748
:1002C000FEE7FEE7FEE7FEE704480549054A064B60
:1002D00070470000793C0008ED000008E836002077
:1002E000E83C0020E8380020E8380020704710B5CE
:1002F000044600F053FB0068005DC00602D504F11F
:10030000200010BD204610BD1CB50C46064B7B449A
:1003100069460090204600F0E8FD0446002069464A
:1003200000F0F6FD20461CBDFF0B00000FB4044991
:1003300010B503AA029800F007FE10BC5DF814FB8C
:10034000100000200FB41CB5084B06AA7B44694678
:100350000090059800F0C9FD04460020694600F0B1
:10036000D7FD20461CBC5DF814FB0000C10B00004B
:1003700070B5044685690068C10601D5302600E0E5
:100380002026C00707D070BDD4E901213046904730
:10039000206A401C20626D1EF6D570BD70B5044603
:1003A00085690078C00707D170BDD4E901212020FC
:1003B0009047206A401C20626D1EF6D570BD70B556
:1003C0000C460546012A05D02878800600D5EA6942
:1003D000002302E0012305E05B1C934202D2E05CB3
:1003E0000028F9D1A869E618C01AA861286A18443B
:1003F00028622846FFF7BCFF04E0D5E9012114F884
:10040000010B9047B442F8D32846FFF7C7FF70BDF1
:100410002DE9F0410646002410687529314616A5DD
:1004200010D000F0CEFA002802DA404213A507E00F
:1004300031688A0701D512A502E0490704D511A544
:10044000012401E000F0C6FA00210A2206F1240787
:1004500009E0B0FBF2FCB0FBF2F302FB1C00303011
:1004600078541846491C0028F3D123462A463046C2
:10047000BDE8F04100F0B7BA000000002D00000018
:100480002B00000020000000F0B40D460188090593
:1004900002D5214C7C4402E01F4C7C440E340021E8
:1004A00000F1240608E002F00F071209E75D42EAB6
:1004B00003721B097754491C52EA0307F3D10278EF
:1004C0000023120704D5702D06D009B10223113480
:1004D0002246F0BC00F087BA01231034F8E770B56B
:1004E00004460D462146106800F074FA024629467B
:1004F0002046BDE870400023C6E7D21D22F0070366
:10050000D3E90023C0E70368126843F020030360C7
:100510000823C3610023B7E7A0C200002DE9F05F04
:10052000894604464FF0000ADFF874B1FB44C0F876
:1005300020A02046E1688847002874D0252806D0EE
:10054000D4E901219047206A401C2062F1E700268F
:100550005F462046E16888472028054607DB312DA5
:1005600005D2781910F8200C08B10643F1E7B0075E
:1005700001D526F00406C4F81CA00027C4F818A072
:100580002A2D09D0284604F051F838B304EB870827
:10059000303DC8F8185019E059F8041B204604EB08
:1005A00087029161E1688847012F054618D1E0690B
:1005B000002820DA26F020061DE0D8F8180000EB0D
:1005C000800005EB40003038C8F818002046E1688C
:1005D0008847054604F02AF80028EED1012F0AD0FA
:1005E0002E2D08D12046E16888477F1C0546022F42
:1005F00046F02006C4DBA069002803DA404246F03A
:100600000106A061F00701D026F010066C2D0BD07A
:10061000682D09D04C2D39D06A2D35D0742D35D0A8
:100620007A2D33D016E038E0E1682F46204688471F
:10063000B842054609D16C2F26D04FF48060E1689E
:10064000064320468847054604E06C2F1AD04FF435
:10065000807006430DB3A5F14100192802D820355A
:1006600046F400664A462946204626604E46FFF775
:1006700097FD80B101280BD0F61D26F0070000F190
:10068000080956E74020E4E78020D8E70020D6E7B5
:1006900006F104094DE7284652E7206ABDE8F09FBD
:1006A00030C200000B4910B5A1F17C020A4CC2E92E
:1006B0003712372106E000EB104342F82130074B98
:1006C00000FB03400B1EA1F10101F4DC10BD012071
:1006D000E8E700001C360020E119D666CD0D0100C8
:1006E00030B505460B462A4613F8014B12F8010BAC
:1006F00008B1A042F8D01CB1002802D06D1CF1E76F
:10070000284630BD10B5431C02E010F8011B71B142
:100710008107FAD14FF0013202C88C1A8C4314EAD7
:10072000C211F9D0C01A0A0603D0C01E10BDC01AEB
:1007300010BD0A0401D0801E10BD0902FCD0401E6D
:1007400010BD40EA010370B59B072ED14FF0013672
:10075000042A2AD308C810C99D1B9D43121F15EAFD
:10076000C61517D0D8B2E1B2401A50EA056110D1CF
:1007700098B2A1B2401A50EA05410AD123F07F4055
:1007800024F07F41401A50EA052102D1180EA0EB57
:10079000146070BDA342DBD018BA21BA884201D9D7
:1007A000012070BD4FF0FF3070BD0AB9002070BD50
:1007B00010F8013B11F8014B63B1A3420AD1521E5C
:1007C00008D010F8013B11F8014B1BB1A34201D135
:1007D000521EEDD1181B70BD032A40F2308010F07C
:1007E000030C00F0158011F8013BBCF1020F6244CC
:1007F00098BF11F801CB00F8013B38BF11F8013B5D
:10080000A2F1040298BF00F801CB38BF00F8013B09
:1008100011F0030300F02580083AC0F0088051F879
:10082000043B083A51F804CBA0E80810F5E7121D84
:100830005CBF51F8043B40F8043BAFF30080D207A3
:1008400024BF11F8013B11F801CB48BF11F8012B6F
:1008500024BF00F8013B00F801CB48BF00F8012B92
:10086000704710B5203AC0F00B80B1E81850203A1C
:10087000A0E81850B1E81850A0E81850BFF4F5AF40
:100880005FEA027C24BFB1E81850A0E8185044BFCA
:1008900018C918C0BDE810405FEA827C24BF51F837
:1008A000043B40F8043B08BF7047D20728BF31F82B
:1008B000023B48BF11F8012B28BF20F8023B48BF7C
:1008C00000F8012B70474FF0000200B51346944624
:1008D0009646203922BFA0E80C50A0E80C50B1F198
:1008E0002001BFF4F7AF090728BFA0E80C5048BFAC
:1008F0000CC05DF804EB890028BF40F8042B08BF4A
:10090000704748BF20F8022B11F0804F18BF00F845
:10091000012B70474FF0013C50F8042B51F8043B79
:100920009A4221D1A2EB0C03934313EACC1317D1C3
:1009300050F8042B51F8043B9A4215D1A2EB0C035A
:10094000934313EACC130BD150F8042B51F8043B1A
:100950009A4209D1A2EB0C03934313EACC13DBD0E8
:100960004FF00000704700BFD01A01BAB1FA81F110
:1009700001F0180122FA01F0CB40C1F12001DBB2F5
:10098000C0B2C01A2CFA01F3D11A914311EAC31173
:10099000E6D17047704770477047704710B500F058
:1009A000B9FB001D10BD00BFE981000010B500F0CB
:1009B000B5FB006810BD10B5044600F0AFFB046045
:1009C00010BD09684A0501D540B27047C905FCD57C
:1009D00000B2704709684A0501D5C0B27047C90521
:1009E000FCD580B270472DE9F0470D4699469246F6
:1009F000044600F124080168880604D5E06921F066
:100A00001001216000E00120A84201DD471B00E049
:100A10000027A1697A1902EB0900081AA061207861
:100A2000C00602D42046FFF7A3FC002608E0D4E964
:100A300001211AF806009047206A401C761C2062AB
:100A40004E45F4DB2078C0060AD52046FFF790FC1F
:100A500006E0D4E9012130209047206A401C206242
:100A6000381EA7F10107F4DC07E0D4E9012118F8EA
:100A700005009047206A401C2062281EA5F1010550
:100A8000F3DC2046FFF78AFC2078000602D502201E
:100A9000BDE8F0870120FBE711680268006A530592
:100AA00001D508700AE0D30501D5088006E01306D9
:100AB00003D5C217C1E9000200E0086001207047B9
:100AC00070472DE9FF4F0C461E464FF0FF378BB0A5
:100AD000D2E90001DDF860800A908A46C1F30A5528
:100AE00005B93D46002108464FF00000BAF1000F5D
:100AF00000F4400005DA00EB80004FF4400101EA09
:100B000050004FEA9059B9F1010F00DDB9460A983B
:100B100050EA4A000ED044F61050A5F2FF35454386
:100B20002F14B8F1000F1ED07542291E1EDDC9F129
:100B300000021CE0B8F1010F4FF0000001D030219D
:100B400003E0F24305E02154401CB042FBDB304699
:100B50000022002121540B99C1F80880C1E900202E
:100B60000FB0BDE8F08FBD1B6D1CDEE74A4600DA12
:100B7000694206A800F0F0FC06AB93E8070003AB5F
:100B800083E8070050460A9900F0AEFD8DE80700A3
:100B9000A0F500501F3800900398002D0ADD42F2A6
:100BA0001F014A460844002303A90390684601F048
:100BB00017F809E0A0F500504A461F38002303A9A2
:100BC0000390684601F021F88DE807000004000C4E
:100BD00003D04FF0FF30410800E01046B8F1000F9D
:100BE00003D00022009215461EE0751E05D400F0C9
:100BF00099FA303262556D1EF9D5B3460122084389
:100C000002D000227F1C04E02078302801D100228D
:100C10007F1E002A099784D01DE0112D07DA00F00D
:100C200081FA303262556D1C50EA0102F5D1084359
:100C300002D00098C8B10EE00021681E05E0235CD8
:100C4000625C63542254401E491C8142F7DBAB4670
:100C5000A81B401E0990002004F80B000B98099A6D
:100C6000C0F80880C0E9002B7AE711264FF0000891
:100C700057E72DE9F04F88460446D21D22F00701C0
:100C800091B0D1E90001CDE90A0103F046FC02462A
:100C90000B98C00F01D02D2007E02068810701D5F7
:100CA0002B2002E0202101EAC000032A099001D094
:100CB000072A05DB03464146204600F0F7FB0BE11F
:100CC0002078800601D5E06900E00620B8F1650FC4
:100CD000814606D0B8F1660F18D0B8F1670F70D111
:100CE00031E00020B9F1110F009001DB112301E088
:100CF00009F101030AAA01A90CA8FFF7E2FEDDE948
:100D00000C70002609F10105834647E001204B469F
:100D100000904FF000470AAA01A90CA8FFF7D1FEE6
:100D2000DDE90DB00C995D46002610B909F101000E
:100D30000D18B9EB050003D4C0F1FF3609F1010528
:100D4000A5EB09002BE0B9F1010F01DA4FF0010921
:100D50000020B9F1110F0090484601DD112300E099
:100D600003460AAA01A90CA8FFF7ABFEDDE90C7047
:100D70004D4600268346207800070AD4AB4500DAAA
:100D80005D4601A8012D04DD411911F8011C30292F
:100D900007D04F4502DA17F1040F04DA012082462A
:100DA0000FE06D1EEEE7002F02DCED1B3E4403E07A
:100DB000781CA84200DD7D1CB81B00F1010A4FF031
:100DC00000472078000703D4AA4501DB4FF0FF3A23
:100DD0000021B7F1004F0DF143088DF8431024D0E6
:100DE00002202B23002F01DA7F422D230A21021E2D
:100DF000A0F1010000DC5FB197FBF1FC97FBF1F281
:100E000001FB1C7C17460CF1300C08F801CDEEE715
:100E1000A8F1010003702188090501D5452100E0F2
:100E20006521A0F1010800F8011C09980FA9A1EBA8
:100E30000807FF1D00B10120411901EBEA70A1690B
:100E40003844081A401EA0612078C00602D420460B
:100E5000FFF78EFA099828B1D4E901219047206A5A
:100E6000401C20622078C00622D52046FFF780FA79
:100E70001EE0002E04DBB34502DD01A8805D00E02A
:100E80003020D4E901219047206A401C2062761C62
:100E9000AAF101005FEA000A0AD100F03BF9C0683C
:100EA0000168405CD4E901219047206A401C20621F
:100EB000281EA5F10105DCDC07E0D4E9012118F8C2
:100EC000010B9047206A401C2062381EA7F10107E1
:100ED000F3DC2046FFF762FA032011B041E6000080
:100EE00001694A1C02610878704700B58FB0CDE9EE
:100EF00001310021059105497944CDE903101146DE
:100F00006846FFF70BFB0FB000BD0000E5FFFFFFD9
:100F10000A6802F8010B0A60704710B5436913B103
:100F2000AFF3008001E0FFF74AFA012010BD12780C
:100F300000F124010A7000224A700122EDE71168D5
:100F40004FF0FF32E9E70000074B70B50D467B44D8
:100F5000FFF7CBFF0446284600F070FB10B14FF0BE
:100F6000FF3070BD204670BDD34700002DE9FF5F04
:100F700015468A460446DFF8AC80F8440027D8E9D5
:100F800000103E46CDE9001010E03AF816106A460F
:100F900002A800F057FB411C07D02178890603D531
:100FA000E269391891420DD80744761C20788006F2
:100FB00002D5E069B84205DDAE42E6DB3AF816003C
:100FC0000028E2D1A069C01BA0612046FFF7D0F93C
:100FD000D8E90010CDE90010002017E03AF8181009
:100FE0006A4602A800F02EFBB0F1FF3F81460BD00D
:100FF00000250DF1080B05E0D4E901211BF80500DF
:1010000090476D1C4D45F7D308F10100B042804672
:10101000E4DB206A384420622046FFF7BFF9BDE8D0
:10102000FF9F000082B800002DE9F0418046D21DEC
:1010300022F007020025D2E90002F52915A614D0F6
:10104000011E72F1000106DA0023D0EB030063EB0E
:10105000020211A608E0D8F800108B0701D50FA6F0
:1010600002E0490701D50EA601251146002408F12A
:10107000240704E000F056F830323A55641C50EA78
:101080000102F7D12B46324621464046BDE8F041E9
:10109000FFF7A9BC000000002D0000002B0000009D
:1010A0002000000030B4002100F1240408E002F028
:1010B0000705D208303542EA4372DB086554491C03
:1010C00052EA0305F3D10468002310A2250707D5CF
:1010D000A40600D421B1C46901230DA2641EC46119
:1010E00030BCFFF780BC10B5044621461068FFF7FE
:1010F00071FC02462046BDE810400023D2E7D21D15
:1011000022F00701D1E90023CCE700000000000035
:101110003000000000487047A436002000487047A7
:101120008436002030B5B0F10A024FEA900E71F11A
:1011300000034EEA817EB0EB0E0061EB91014FEAB5
:10114000101E4EEA017E10EB0E0041EB11114FEA2A
:10115000102E4EEA016E10EB0E0041EB11214FEA0A
:10116000104E4EEA014E10EB0E0041EB11414018BB
:1011700041F100014FEAD00040EA41704FEAD1014D
:1011800010EB80054FEA810444EA907444EB0104BB
:101190006D1944EB0404521BA3414FF0000348BFF8
:1011A0000A3200D530BD401C41F1000130BD0000C5
:1011B0002DE9F04F04460D46D21D22F0070089B0FC
:1011C000D0E900974846394603F0A7F90246F80FE0
:1011D00001D02D2307E02068810701D52B2302E0F1
:1011E000202101EAC0038DF820300BB1012000E07E
:1011F0000020032A824601D0072A04DB2946204624
:1012000000F054F93FE12078800601D40D2500E07C
:10121000E569C7F30A560D2D49DA00214FEA175B3D
:1012200008464FF00000002F00F4400007DA00EB02
:1012300080004FF4400100EBD07001EA600081159E
:10124000012901DD4FF0FF3100224FEA850CBCF18E
:10125000180F06D31346ACF118004FF08052C2406D
:1012600003E04FF4801323FA0CF30CF10C0CBCF1E7
:10127000200F04D3ACF1200C09FA0CF001E007FABE
:101280000CF000294FF0004801DD18B90FE00ED135
:1012900040450CD319EB02095F4121B9404502D109
:1012A0009F4329EA0209BBEB175F00D0761C208818
:1012B000000502D57B48784402E07A487844193822
:1012C00008AA302302F80A30037C0AF10101002E3B
:1012D0000AF1020A53546A4602DC4FF0300101E081
:1012E0004FF031014FF001088DF8001002D0A6F246
:1012F000FF3603E059EA470100D06B4E002D02DCB7
:101300002178090704D54FF002082E218DF801102D
:10131000C44600210BE0C7F303433F01C35C491CF3
:101320006D1E02F80830052908F1010801DA002DC8
:10133000F1DC00210CE000EB1973491C1B786D1ED9
:10134000082902F808304FEA091908F1010801DA02
:10135000002DF0DC21688B0602D516E0A8F101080B
:10136000E04505DD02EB080313F8013C302BF5D016
:10137000B8F1000F09DD02EB080313F8013C2E2B36
:1013800003D1090701D4A8F10108002D05DD3E2194
:1013900002F808106D1E08F10108407C002E02F8CA
:1013A000080008F1010804DA2D20764202F808004E
:1013B00002E02B2002F808000A214FF47A708642DE
:1013C00008F101080BDB96FBF0F3303302F808302C
:1013D00096FBF0F308F1010800FB136601E0642EB0
:1013E0000CDB642096FBF0F3303302F8083096FBF8
:1013F000F0F308F1010800FB136601E00A2E06DB9A
:1014000096FBF1F0303002F8080008F1010896FB75
:10141000F1F001FB1060303002F80800A16908F11A
:10142000010808EB050202EB0A00081AA061207807
:10143000C00602D42046FEF79BFF216A08AE01EBEE
:101440000A00206204E0D4E9012116F8010B90475C
:10145000BAF1010AF7D22078C00602D52046FEF77D
:1014600087FF6E4609E016F8010B3E280FD0D4E93D
:1014700001219047206A401C2062B8F10108F2D295
:101480002046FEF78BFF09B00320BDE8F08F206AED
:101490002844206203E0D4E90121302090476D1EEA
:1014A000EBD3F8E769B5000002FCFFFF2DE9F0413E
:1014B0001F46044603260168072A01F4006004DB86
:1014C00008B116A505E016A503E008B115A500E0D2
:1014D00015A521F010002060A069C01EA0610FB109
:1014E000401EA0612046FEF743FF4FB1D4E9012121
:1014F00038469047206A401C2062C01C206206E0EB
:10150000206AFAE7D4E9012115F8010B9047761E0D
:10151000F8D22046FEF742FFBDE8F0814E414E0072
:101520006E616E00494E4600696E660010B54369F3
:1015300013B1AFF3008001E0FFF718FD012010BDEB
:10154000128800F1240182840022C2840122EDE786
:1015500011684FF0FF32E9E72DE9F0478146164662
:101560008AB0354878440DC88DE80D00324878447B
:10157000801C03AC0DC884E80D0041F69B30084484
:10158000372190FBF1F290FBF1F5A5F1800501FB0D
:1015900012041B3C02D56442012000E00020DFF869
:1015A00098A080460027FA44AAF1BE0A0EE0E007A0
:1015B0000AD03246684607EB470101230AEB810156
:1015C00000F023FB8DE8070064107F1C002CEED197
:1015D000194F7F44AE3F19E0E80715D007EB041020
:1015E0000DF1180A90E80E008AE80E00C068F0427B
:1015F00001D1981908903246012306A903A800F0EA
:1016000004FB03AB83E807006D10641C002DE3D1DD
:101610004FF0010332466946B8F1000F03A802D02B
:1016200000F0DEFA01E000F0F0FAC9E90001C9F8C3
:1016300008200AB0BDE8F0874CB30000007B00F042
:101640008000704770B516460C460546FFF7A6F9B0
:10165000036893F80101012806D0FF2C0FD8185D0C
:1016600068B101202C7070BDD3F8070132462146C5
:1016700003F2071303442846BDE8704018474FF0B3
:10168000FF3070BD00487047843600207546FFF774
:10169000F9FFAE4605006946534620F0070085462F
:1016A00018B020B5FEF710FEBDE820404FF0000650
:1016B0004FF000074FF000084FF0000B21F007013A
:1016C000AC46ACE8C009ACE8C009ACE8C009ACE87D
:1016D000C0098D46704710B50446AFF30080204620
:1016E000BDE81040FEF7C1BD5FEA400C08BF91F0B5
:1016F000000F4FEA8C234FEAC12243EA51514FEACF
:101700001C5018BF00F5F0404FEA300018BF41F000
:1017100000415FEA6C5C00F02980BCF1FF3F08BF2C
:1017200040F080407047130C06BF12044FF0100CBD
:101730004FF0000C130E04BF12020CF1080C130F33
:1017400004BF12010CF1040C930F04BF92000CF1C2
:10175000020CD30F04BF52000CF1010C11464FF0E4
:101760000002A0F11F00A0EB0C00704711F0004F29
:1017700008BF704731F000413FF4D5AF0B0C06BFF6
:1017800009044FF0100C4FF0000C0B0E04BF0902BF
:101790000CF1080C0B0F04BF09010CF1040C8B0FAA
:1017A00004BF89000CF1020CCB0F04BF49000CF1FF
:1017B000010CCCF12003A0EB0C0022FA03F302FA97
:1017C0000CF241EA030100F10100704720F07F4C68
:1017D00080EA030023F07F47ACEB070303F57C535B
:1017E00000F0004003F1FF032DE980494FEA154B5B
:1017F00009B44FEA144325EA0B4E24EA03480FF2DA
:10180000042606EB132749083E785FEA320203FB01
:101810000667C7F5000707FB06F64FEA54374FEA9D
:10182000D64606F1020607FB066CCCF1005C4FEAD7
:101830001C472CEA074C07FB06F40CFB06F504EBEF
:1018400015464FEA961634BF00204FF000404FEA8D
:10185000D13706FB07FC4FEA1C4C0CFB0BF7D21BE5
:1018600003FB0CF761EB07010CFB0EF7B0EB074035
:1018700072EB17420CFB08F734BFA2EB0742B2EB46
:10188000074261EB17414FEA0C444FEA910706FB10
:1018900007FC4FEA1C4C0CFB0BF7B0EBC74072EB9C
:1018A000573203FB0CF734BFA2EBC742B2EBC7427F
:1018B00061EB57310CFB0EF7B0EBC70072EB5772C0
:1018C0000CFB08F734BFA2EBC702B2EBC70261EB17
:1018D0005771039F4FEA816141EA921104EBCC04F6
:1018E0004FEAD1374FEA826206FB07FC42EA9012C8
:1018F0004FEA80604FEA1C4C0CFB0BF7D21B03FB3A
:101900000CF761EB07010CFB0EF7B0EB074072EB35
:1019100017420CFB08F734BFA2EB0742B2EB0742B9
:1019200061EB17414FEA8C554FEA910704EB9C2479
:1019300006FB07FC4FEA1C4C0CFB0BF7B0EBC74057
:1019400072EB573203FB0CF734BFA2EBC742B2EB8A
:10195000C74261EB57310CFB0EF7B0EBC70072EBDF
:1019600057720CFB08F734BFA2EBC702B2EBC702F9
:1019700061EB577115EB4C254FEA816141EA9211F9
:101980004FEA82624FEAD13742EA901206FB07FC27
:1019900044F100044FEA80604FEA1C4C0CFB0BF74B
:1019A000D21B03FB0CF761EB07010CFB0EF7B0EB4E
:1019B000074072EB17420CFB08F734BFA2EB07425B
:1019C000B2EB074261EB174115EB1C154FEA813171
:1019D00041EA92414FEA823242EA90424FEA803035
:1019E0004FEA0C7644F1000448EA03434EEA0B4800
:1019F0004FF0000EB2EB080C71EB030724BF6246F8
:101A000039464EEB0E0E4FF0000B00185241494183
:101A10004BEB0B0BB2EB080C71EB03077BF1000BEC
:101A200024BF624639464EEB0E0E4FF0000B0018F5
:101A3000524149414BEB0B0BB2EB080C71EB030726
:101A40007BF1000B24BF624639464EEB0E0E51EA85
:101A5000020718BF46F0010616EB0E7655F100029C
:101A600054F1000103D5BDE88901BDE80088BDE857
:101A70008901BDE80048B619524141EB0101A3F1CB
:101A80000103704780807F7E7D7C7B7A79787776D2
:101A900076757473727171706F6E6E6D6C6C6B6A4B
:101AA0006A696868676666656464636362616160E9
:101AB000605F5F5E5E5D5D5C5C5B5B5A5A59595866
:101AC00058575756565555555454535352525251D0
:101AD000515050504F4F4F4E4E4D4D4D4C4C4C4B26
:101AE0004B4B4A4A4A49494948484847474747466D
:101AF00046464545454444444443434343424242A9
:101B000042414141002B9C4630D477002BD01CB57C
:101B10004FEA370703B44FF010004FF01001BAF14D
:101B2000000F06D0BCF1000FDCBF40F0080040F011
:101B300008014FF000000FBCBDE810400BF1010B95
:101B4000BBF1010F08BF5FEA170722BF12F10102C4
:101B500011F101014FF0004143F1000300F000409A
:101B600043EA00007047F9D35708D0E746EA064633
:101B700013F1400F4FEA16461FDD13F1200FDFBFB0
:101B800016430A46002120335B42BED0C3F1200732
:101B900046EA064602FA07F74FEA164646EA0706FD
:101BA000C3F1200722FA03F201FA07F721FA03F141
:101BB0004FF0000342EA0702A7E746EA020646EAB8
:101BC00006464FEA164646EA0106BCBF46EA064606
:101BD000360C4FF000034FF000024FF0000194E785
:101BE0002DE9804C9A46934670B491E8380007C8B6
:101BF00031EA400C48BF34EA430C03D5FFF7E6FD59
:101C0000FFF780FFF0BCBDE8008C2DE9804C9A46C0
:101C1000934670B491E8380007C810F0804F08BFB1
:101C200013F0804F03D100F005F8FFF76BFFF0BC15
:101C3000BDE8008C20F07F4780EA030023F07F4C52
:101C400007EB0C03A3F57C5300F00040A3F1FE0367
:101C500092F0000F00F0B38095F0000F00F0778055
:101C60002DE901494FEA11404FEA144621EA0048A4
:101C700000FB06FC24EA064708FB06F607FB08F80B
:101C800000FB07F718EB06484CEB164C4FEA124BDB
:101C900018EB07484FEA15464CEB174022EA0B4E6B
:101CA0000BFB06FC25EA06470EFB06F607FB0EFEBD
:101CB0000BFB07F71EEB064E4CEB164C4FF00006E5
:101CC0001EEB074E4CEB174B18EB0B0840F10000D6
:101CD00018EB0E0B58EB000840F100008F1A4FF084
:101CE00000013CBFC943661B14BFB5EB040C0021C7
:101CF0003CBFC943F61B4FEA17444EEA8E0E27EA53
:101D000004454FEA1C4704FB07622CEA074C05FB1D
:101D100007F70CFB05F604FB0CFC16EB074642EB41
:101D2000174216EB0C4642EB1C421BEB060658EB27
:101D30000202414146EA9E0601D5BDE80189B61975
:101D4000524141EB0101A3F10103BDE801894FEAD2
:101D500014454FEA114724EA054621EA074C05FBE2
:101D600007F406FB07F70CFB06F105FB0CFC11EB77
:101D7000074144EB17444FEA124711EB0C4144EB87
:101D80001C4422EA074C05FB07F206FB07F70CFB95
:101D900006F605FB0CFC16EB074642EB174216EB6A
:101DA0000C4642EB1C456A1854F1000148BF7047CD
:101DB000B619524141EB0101A3F10103704795F0BF
:101DC000000F37D04FEA11424FEA144721EA02468A
:101DD00024EA074C02FB07F106FB07F70CFB06F4AD
:101DE00002FB0CFC14EB074441EB17414FEA15478B
:101DF00014EB0C4441EB1C4125EA074C02FB07F5B0
:101E000006FB07F70CFB06F602FB0CFC16EB07467D
:101E100045EB174516EB0C4645EB1C42121951F1E8
:101E2000000148BF7047B619524141EB0101A3F1CF
:101E3000010370474FEA14454FEA114724EA05466B
:101E400021EA074C05FB07F106FB07F70CFB06F23E
:101E50004FF0000605FB0CFC12EB074241EB17416B
:101E600012EB0C4251EB1C4148BF7047921841EBFA
:101E70000101A3F10103704708B50121042001F01D
:101E800045FB10208DF803000120ADF80000032071
:101E90008DF802006946044800F0A4FA4FF40041AE
:101EA000024800F033FB08BD00080140001001406B
:101EB00010B50121014800F029FB10BD00080140C8
:101EC00010B50121014800F023FB10BD00080140BE
:101ED00010B5012001F02AFB002001F027FB10BD06
:101EE00008B501460020009003480090009808447F
:101EF00000900098008808BD006C004008B50022E2
:101F00000092044A0092009A02440092009A1160E2
:101F100008BD0000006C004000BFFEE7704700B540
:101F2000034603E04FF47A7000F005F8181EA3F1A1
:101F30000103F7D100BD00EBC001C9004FF0E02262
:101F40005161002191610521116100BF4FF0E02135
:101F5000096901F480310029F8D004214FF0E02212
:101F6000116170472DE9F84F0025082680244FF0B5
:101F700000084FF000094FF0000A4FF0010B00F08D
:101F800095FCB4E0BBF1010F27D100F0D1FD58481A
:101F90000078012815D1002055490870554908706E
:101FA000554908708346824600BF80464FF00109BC
:101FB000484600F007FE4946284600F0BBFC00F00A
:101FC00075FC4E480078012806D100204B49087066
:101FD00000F06CFCBDE8F88F89E0BAF1010F36D152
:101FE0000120082346A21E210090142001F035FA9A
:101FF00001F018F840480078012813D100203E492C
:1020000008703B4908703B490870824680464FF093
:102010000109484600F0D6FD4946284600F08AFCF2
:1020200000F044FC3548007801280FD100203349E6
:1020300008702F4908702F49087000F037FC4FF0E6
:10204000000AD0464FF0010900BFC3E74FE000F09F
:1020500087FE00F007FD27480078012802D0B8F17C
:10206000000F0DDD00202349087021490870224926
:10207000087022490870484600F0A4FD804601E03F
:1020800000F05EFD0021284600F054FC04460DB926
:10209000082604E0012D01D1102600E01826A01921
:1020A00000280DDAFEF7E8F80746C01707EB907036
:1020B0008010A7EB8000C5B20121284600F03AFC51
:1020C000B8F1100F0DDA102C01DB202C05DDA01962
:1020D000102806DBA019202803DC4FF0010A00F0CD
:1020E000E5FB4FF000093220FFF719FF00BF49E779
:1020F0000A0000200B0000200C0000200D00002032
:10210000472041204D204520204F20562045205279
:102110000000000010B54FF4805000F08DF8012849
:1021200019D1000300F082F84FF480513A4800F0D2
:10213000E4F980B9642003F033F900BF4FF4805113
:10214000354800F0DAF90028F8D0642003F028F9C7
:102150000120324908704FF4005000F06DF801285A
:1021600019D1400300F062F84FF400512A4800F002
:10217000C4F980B9642003F013F900BF4FF4005193
:10218000254800F0BAF90028F8D0642003F008F9D7
:102190000120234908704FF4804000F04DF80128D9
:1021A00019D1800300F042F84FF480411A4800F042
:1021B000A4F980B9642003F0F3F800BF4FF4804124
:1021C000154800F09AF90028F8D0642003F0E8F8E8
:1021D0000120144908704FF4004000F02DF8012848
:1021E00019D1C00300F022F84FF400410A4800F072
:1021F00084F980B9642003F0D3F800BF4FF40041A4
:10220000054800F07AF90028F8D0642003F0C8F8F7
:1022100001200549087010BD000C01400A00002093
:102220000B0000200C0000200D0000200149086078
:102230007047000014040140014600200022074BB3
:102240001B6803EA0102054B14331B680B4013B1F2
:102250000AB1012000E000207047000000040140A6
:10226000002123498279002A3AD00A46126803687D
:102270009A430B461A600A1D126803689A430B1DA5
:102280001A60027911440A6803681A430A60184AFE
:102290000832126803689A43154B08331A601A1DF6
:1022A000126803689A43124B0C331A604279102A61
:1022B0000ED11A1F126803681A430D4B08331A60B7
:1022C0001A1D126803681A43094B0C331A600DE09B
:1022D0000749427911440A6803681A430A6005E015
:1022E000027911440A6803689A430A607047000043
:1022F000000401401FB50121082001F007F9012168
:10230000084601F003F948208DF80F004FF47040A3
:10231000ADF80C0003208DF80E0003A9204800F052
:1023200061F80C21012000F03DF80D21012000F0A2
:1023300039F80E21012000F035F80F21012000F0BE
:1023400031F84FF48050019001208DF80A000020F0
:102350008DF808000C208DF8090001A8FFF780FF18
:102360004FF40050019001A8FFF77AFF4FF480402E
:10237000019001A8FFF774FF4FF40040019001A8FD
:10238000FFF76EFF28208DF8000001208DF8030074
:102390008DF801008DF80200684600F045FA1FBD77
:1023A000000C014030B500228B071C0F0F2303FAED
:1023B00004F20B4B8C1053F824309343084C8D10CF
:1023C00044F8253023468C1053F824308C07240F12
:1023D00000FA04F42343024C8D1044F8253030BD3C
:1023E000080001402DE9F0410246002500260020AA
:1023F00000230024002791F803C00CF00F0591F88A
:1024000003C00CF0100CBCF1000F03D091F802C017
:102410004CEA050591F800C0BCF1000F31D01468FA
:1024200000202BE04FF0010C0CFA00F3B1F800C0D3
:102430000CEA03069E4220D183004FF00F0C0CFAE9
:1024400003F7BC4305FA03FC4CEA040491F803C00B
:10245000BCF1280F06D14FF0010C0CFA00FCC2F8B9
:1024600014C00AE091F803C0BCF1480F05D14FF049
:10247000010C0CFA00FCC2F810C0401C0828D1D393
:102480001460B1F800C0BCF1FF0F34DD54680020C7
:102490002EE000F1080C4FF0010808FA0CF3B1F837
:1024A00000C00CEA03069E4221D183004FF00F0CBE
:1024B0000CFA03F7BC4305FA03FC4CEA040491F858
:1024C00003C0BCF1280F05D100F1080C08FA0CF884
:1024D000C2F8148091F803C0BCF1480F07D100F195
:1024E000080C4FF0010808FA0CF8C2F81080401CE4
:1024F0000828CED35460BDE8F081024600209368DE
:102500000B400BB1012000E0002070474161704793
:102510000161704738B50124002500F0C7F993E048
:102520000020102320220146009000F063FE0020CE
:102530001023202201460090184600F05BFE002088
:102540001023202201460090104600F053FE002088
:102550001023302201460090104600F04BFE002070
:102560001023312201460090402000F043FE00205D
:102570001023202201460090502000F03BFE002056
:102580001023202201460090602000F033FE00203E
:102590001023202201460090702000F02BFE012025
:1025A0001023422216210090184600F023FE01203D
:1025B0001023432216210090202000F01BFE012052
:1025C0001023442216210090302000F013FE012039
:1025D0001023452216210090402000F00BFE012020
:1025E0001023462216210090502000F003FE1748C9
:1025F0000078012809D10020144908701449087096
:102600001449087000F052F938BD134800780128C9
:1026100007D10020104908700D4908700D49087055
:102620002546012C0AD1012010232A2216210090D0
:10263000002000F041FD00F0F5FC00BF00BF012DBF
:1026400002D1FFF78FFC00256AE700000D00002093
:102650000B0000200C0000200A0000202DE9F047AC
:1026600005460E4617469846DDE9089A0023B5F55B
:10267000FA6F03DB40F63300854202DD0120BDE83E
:10268000F08740F2B2740AE0204600F089F810B1F9
:102690001948034401E019480344601C84B2AC4269
:1026A000F2DB701EC6B2002410E01548005D40F257
:1026B000A321484303EBC013284600F071F818B17A
:1026C000012C01D10F480344601C84B2B442ECDBFE
:1026D000781E40F2A321484303EBC013C8EB481017
:1026E000C0EB082003EB0013C9EB091003EB8003D8
:1026F00053441846C3E700000085E2018033E1013E
:10270000389800088051010000BFFEE710B5202175
:102710000A48FFF7FDFE40210848FFF7F9FE00F0E8
:1027200037F820210548FFF7F1FE00F031F840218D
:102730000248FFF7EBFE00F02BF810BD0008014047
:1027400010B520210648FFF7E1FE40210448FFF7BD
:10275000DFFE00F01DF820210148FFF7D9FE10BD73
:102760000008014010B520210848FFF7D1FE00F015
:102770000FF840210548FFF7CBFE00F009F8402193
:102780000248FFF7C3FE00F003F810BD0008014047
:102790000A2000BF011EA0F10102D0B2FAD1704799
:1027A0000146CA1701EB92729210A1EB820292B914
:1027B000642091FBF0F200FB121050B94FF4C87086
:1027C00091FBF0F200FB121008B9012070470020C5
:1027D000FCE70120FAE70020F8E7000010B501212E
:1027E0000148FFF795FE10BD000C014008B501211E
:1027F000082000F08BFE10208DF803000120ADF8BA
:10280000000003208DF8020069460448FFF7EAFD46
:1028100001210248FFF77AFE08BD0000000C0140CC
:1028200000BFFEE77047000070B5002100230F22B3
:10283000C47804B3154C246804F4E064C4F5E0647F
:10284000210AC1F10403CA40447804FA03F18478F0
:102850001440214309010E4C0678A155047804F078
:102860001F050124AC4005786D11AD0005F1E02590
:10287000C5F8004109E0047804F01F050124AC40CC
:10288000044D0678761145F8264070BD0CED00E049
:1028900000E400E080E100E002490143024A1160E7
:1028A000704700000000FA050CED00E070B5002450
:1028B0000CE0002506E00020074901EBC5010855A2
:1028C000681CC5B2802DF6DB601CC4B2082CF0DB9E
:1028D00000F0A8FB70BD0000D80E00202DE9F041EB
:1028E00005460027002420E02146002000F0CEFB12
:1028F000FFF70CFF782001F023F9FFF733FF4020AA
:1029000001F01EF9FFF72EFF002608E039467F1C74
:10291000685C01F015F9FFF725FF701CC6B2802E28
:10292000F4DBFFF70DFF601CC4B2082CDCDBBDE854
:10293000F08100002DE9FC5F04468A464FF005084F
:102940004FF0000B4FF00009002001900026BAF173
:10295000010F0AD180203E4908604246062100202E
:1029600003F0A0FB8020BDE8FC9F14B94FF00809DC
:102970000AE0012C02D14FF0100905E0022C01D031
:10298000032C01D14FF0180900254CE030480068B5
:10299000002809DA2E480068C0F1000BA81DC1B25A
:1029A000002000F073FB05E0AA1DD1B2284A107880
:1029B00000F06CFBFFF7AAFE782001F0C1F8FFF7EA
:1029C000D1FE402001F0BCF8FFF7CCFE0BF0FF0772
:1029D00022E01F48006838447F2800DD1EE005FB28
:1029E00009761CB91B48805D00900EE0012C03D1D4
:1029F0001948805D009008E0022C03D11748805DE3
:102A0000009002E01648805D0090009801F098F870
:102A1000FFF7A8FE781CC7B24F45DADB00BFFFF70F
:102A20008FFE681CC5B2022DB0DB0949096801EBB5
:102A300009004246062103F035FB05480068A0EB7B
:102A40000800034908600846006840448BE700001E
:102A50004400002041C2000851C2000871C20008B1
:102A6000A1C200082DE9F04703254FF00009002717
:102A700018262C4800683044694288420BDC8020CC
:102A800028490860FDF7F8FB032190FBF1F201FBF8
:102A90001200254908702348006800280ADA2148F6
:102AA0000068474220480078401CC1B2002000F076
:102AB000EDFA07E01C4A1278521CD1B2194A10787C
:102AC00000F0E4FAFFF722FE782001F039F8FFF772
:102AD00049FE402001F034F8FFF744FE3C4613E085
:102AE0001048006820447F2800DD10E0B44203DA7B
:102AF0000E4810F8048001E04FF00008404601F055
:102B00001FF8FFF72FFE641C7019A042E8DC00BF1D
:102B1000FFF716FE03480068401B02490860BDE845
:102B2000F0870000380000203C00002069C0000849
:102B300010B50248FFF7D2FE10BD000019C300080F
:102B40002DE9F04100271D480078401C1B49087002
:102B5000087800EBD0714910A0EB4101174A1170C1
:102B6000002427E0A01DC1B2102000F08FFAFFF76B
:102B7000CDFD782000F0E4FFFFF7F4FD402000F0E9
:102B8000DFFFFFF7EFFD00250EE005EB04170C4813
:102B90000A49097800EB4110C65D304600F0D0FFCD
:102BA000FFF7E0FD681CC5B2102DEEDBFFF7C8FD96
:102BB000601CC4B2022CD5DBBDE8F0813D000020D2
:102BC00081C000082DE9FE4307465EA207CA8DE8D2
:102BD00007004FF000090026012F0AD100205C49B0
:102BE00008605C49087008205B4908700020BDE857
:102BF000FE835848007898B9574909781DF80100B4
:102C00005349096808445249086053480078401EF7
:102C10005149087008460078002801DA0020087041
:102C20004C480078012813D14B4909781DF8010060
:102C300047490968081A4649086047480078401C17
:102C40004549087008460078082801D9082008700E
:102C50003F4800681F2805DB01203E4908701F20FF
:102C60003B4908603A480068002804DC00203949E4
:102C700008703749086036480068072801DC0026DC
:102C800012E0334800680F2801DC01260CE03048D0
:102C90000068172801DC022606E02D4800681F287E
:102CA00001DC032600E00426002432E0C6F1050022
:102CB0002044C1B2102000F0E9F9FFF727FD782089
:102CC00000F03EFFFFF74EFD402000F039FFFFF718
:102CD00049FD002517E005EB04191D490868C117D7
:102CE00000EB5171C910A0EBC10101EB41011B4A7E
:102CF00002EB011111F80980404600F021FFFFF7B7
:102D000031FD681CC5B2102DE5DBFFF719FD601C15
:102D1000C4B2032CCADB0F48007828B9C6F10801F9
:102D20001022104603F0BEF90A480078012805D1A8
:102D3000C6F104011022104603F0B4F904480068FB
:102D400055E7000001010303040405060700000025
:102D50004C0000205000002048000020C1C00008A6
:102D60002DE9F041052540F255260721002000F00D
:102D70008DF9FFF7CBFC782000F0E2FEFFF7F2FCC4
:102D8000402000F0DDFEFFF7EDFC00240FE00D48D1
:102D900000682044B0FBF6F106FB11000A490F5C05
:102DA000384600F0CDFEFFF7DDFC601CC4B2802C7D
:102DB000EDDBFFF7C5FC03480068284401490860C3
:102DC000BDE8F0813400002014BE00082DE9FF4F5B
:102DD00084B081468A460020029083460698A0EB84
:102DE00009040798A0EB0A06CDF80490CDF800A0DE
:102DF000002C01DD012705E00CB9002702E04FF0AF
:102E0000FF376442002E02DD4FF0010806E016B9DC
:102E10004FF0000802E04FF0FF386642B44201DD97
:102E2000254600E03546002003901EE0009AD1B20E
:102E3000019AD0B2119A00F01FF802982044029033
:102E4000B3440298A84205DD0298401B0290019805
:102E500038440190AB4504DDABEB050B00984044D2
:102E600000900398401C80B20390691C039888422C
:102E7000DCDB08B0BDE8F08FF0B514460B46CF1789
:102E800001EB5777C7F3C702CF1701EB5777FF1056
:102E9000A1EBC707FEB20123B340DDB24CB1134B27
:102EA00003EBC0039B5C2B43104F07EBC007BB54E5
:102EB0001AE00E4B03EBC0039B5CDB430B4F07EBAD
:102EC000C007BB54094B03EBC0039B5C2B43074F6C
:102ED00007EBC007BB54054B03EBC0039B5CDB4314
:102EE000024F07EBC007BB54F0BD0000D80E002016
:102EF00008B50121042000F009FB6020ADF80000B6
:102F000010208DF8030003208DF8020069463E482A
:102F1000FFF768FA60213C48FFF7FAFAC820FEF78D
:102F2000FEFF0021AE2000F0BDFA0021084600F0AF
:102F3000B9FA0021102000F0B5FA0021402000F07D
:102F4000B1FA0021812000F0ADFA0021CF2000F07D
:102F5000A9FA0021A12000F0A5FA0021C82000F064
:102F6000A1FA0021A62000F09DFA0021A82000F07F
:102F700099FA00213F2000F095FA0021D32000F0BB
:102F800091FA0021084600F08DFA0021D52000F0CA
:102F900089FA0021802000F085FA0021D92000F074
:102FA00081FA0021F12000F07DFA0021DA2000F002
:102FB00079FA0021122000F075FA0021DB2000F0E0
:102FC00071FA0021402000F06DFA0021202000F06D
:102FD00069FA0021022000F065FA00218D2000F03E
:102FE00061FA0021142000F05DFA0021A42000F015
:102FF00059FA0021A62000F055FAFFF757FC0021EE
:10300000AF2000F04FFA08BD0008014010B502469D
:10301000012000E050430B1EA1F10104E1B2F9D1FF
:1030200010BD000070B500242BE004F1B001C8B25F
:10303000002100F037FA0021084600F033FA0021A1
:10304000102000F02FFAFFF761FB782000F078FDE8
:10305000FFF788FB402000F073FDFFF783FB00259E
:1030600009E0094901EBC501085D00F069FDFFF7C2
:1030700079FB681CC5B2802DF3DBFFF761FB601C98
:10308000C4B2082CD1DB70BDD80E002070B5044648
:103090000D4605F1B001C8B2002100F003FA10217D
:1030A00041EA1410002100F0FDF904F00F000021A6
:1030B00000F0F8F970BD00002DE9FE4F0746884684
:1030C00092461C460197CDF80080082C02D14FF0A3
:1030D00006091FE02046E31704EB5373DB1021467B
:1030E0004FEAE47C04EB5C7C4FEAEC0CA4EBCC0CE8
:1030F000BCF1000F02D04FF0010C01E04FF0000CCA
:103100006344224604EBD27C4FEA6C0C03FB0CF3C5
:1031100003F0FF09AAF12000C6B200255EE0082CEA
:1031200007D106EB46002F4901EB400010F805B02F
:103130001DE00C2C07D106EB46002B4901EB80006B
:1031400010F805B013E0102C05D1284800EB06104C
:1031500010F805B00BE0182C07D106EBC600244987
:1031600001EB800010F805B001E0BDE8FE8F002003
:1031700002901CE00BF0010028B1414638460C9A41
:10318000FFF77AFE09E00C9808B9012000E0002062
:10319000024641463846FFF76FFE4FEA6B0B08F1D7
:1031A000010000F0FF080298401CC0B20290029893
:1031B0000828DFDB781CC7B2082C0BD004EBD471D5
:1031C0004A100199791A8A4204D1019F0098083067
:1031D000C0B20090DDF80080681CC5B24D459EDB92
:1031E00000BFC2E7449800086C9A0008E09E0008FF
:1031F000D0A400082DE9FC4F0746884616461C4619
:10320000BB46CDF804802046E21704EB5272D21080
:103210002146E31704EB5373DB10A4EBC3030BB19C
:10322000012300E000231A44624392B20092002579
:1032300055E0102C05D12C4800EB461010F805A0E5
:103240001BE0182C07D106EBC600284901EBC00093
:1032500010F805A011E0202C05D1254800EBC61080
:1032600010F805A009E0402C05D1224800EB4620CB
:1032700010F805A001E0BDE8FC8F4FF000091CE04C
:103280000AF0010028B1414638460B9AFFF7F4FDD9
:1032900009E00B9808B9012000E0002002464146F1
:1032A0003846FFF7E9FD4FEA6A0A08F1010000F02D
:1032B000FF0809F1010000F0FF09B9F1080FDFDB99
:1032C000781CC7B2A7EB0B00A04204D15F4601985F
:1032D0000830C0B20190DDF80480681C85B2009807
:1032E0008542A6DB00BFC6E72CB200084CBB000835
:1032F00094BB000814BC00082DE9FF4F82B00646BD
:1033000091461F46DDE90F4A4FF0000B082C01D112
:103310004FF0020B002530E0781B401EC1B20A209E
:10332000FFF774FEB9FBF0F00A21B0FBF1F201FBEC
:103330001208B8F1000F0ED104EBD4710BEB610150
:1033400001FB0561C8B223463022CDE900A40399F0
:10335000FFF7B2FE0FE004EBD4710BEB610101FB50
:103360000561C8B208F13001CAB22346CDE900A414
:103370000399FFF7A1FE681CC5B2BD42CCDB06B0C5
:10338000BDE8F08F2DE9FF4F05460E4617461C4657
:10339000DDF838904FF0000A0095B3462046E2175A
:1033A00004EB5272D2102146E31704EB5373DB1087
:1033B000A4EBC3030BB1012300E000231A44D4B2F1
:1033C0004FF0000845E0002003903BE00D9810F816
:1033D0000A0002900AF101001FFA80FA0020019011
:1033E0001DE0029800F0010028B14A463146284607
:1033F000FFF742FD0AE0B9F1000F01D1012000E022
:103400000020024631462846FFF736FD029840105C
:103410000290701CC6B20198401CC0B20190019885
:103420000828DEDB681CC5B20098281AB84204D10F
:10343000009D0BF1080000F0FF0B5E460398401C56
:10344000C0B203900398B842C0DB08F1010000F05D
:10345000FF08A045B7DBBDE8FF8F2DE9F841064620
:103460000F4614461D46DDF81C8013E0CDF80080A1
:1034700022782B4639463046FFF71EFE082D02D132
:10348000B01DC6B205E0284605EBD07106EB610120
:10349000CEB2641C2078202802DB20787E28E5DD6F
:1034A000BDE8F88170B505460C46FFF72FF9782086
:1034B00000F046FBFFF756F91CB1402000F040FB3E
:1034C00002E0002000F03CFBFFF74CF9284600F03A
:1034D00037FBFFF747F9FFF733F970BD0149086281
:1034E0007047000000000E427047000029B1064AF4
:1034F000D2690243044BDA6104E0034AD269824391
:10350000014BDA61704700000010024029B1064A01
:1035100092690243044B9A6104E0034A9269824330
:10352000014B9A6170470000001002400149086099
:1035300070470000400442420348406A40F08070F7
:1035400001494862704700000010024030B5002178
:103550000022002400232D4D6D6805F00C0121B1DF
:10356000042905D0082923D105E0294D056022E072
:10357000274D05601FE0254D6D6805F47012234D41
:103580006D6805F48034022505EB92421CB9214D8B
:10359000554305600BE01D4D6D6805F400351DB108
:1035A0001C4D5543056002E0194D5543056002E08E
:1035B000174D056000BF00BF144D6D6805F0F001A8
:1035C0000909154D6B5C0568DD4045600F4D6D6860
:1035D00005F4E061090A104D6B5C4568DD408560CB
:1035E0000A4D6D6805F46051C90A0B4D6B5C456866
:1035F000DD40C560054D6D6805F44041890B074D00
:103600006B5CC568B5FBF3F5056130BD0010024089
:1036100000127A0000093D008B0900209B09002060
:1036200010B501460022002300204A11012A02D1D0
:10363000094C236806E0022A02D1074C236A01E004
:10364000054C636A01F01F02012494401C400CB138
:10365000012000E0002010BD0010024000210B4AB4
:1036600011700A4A203A82F82010012802D004285A
:1036700008D103E00121054A117004E00521034A45
:10368000117000E000BF00BF704700002010024032
:1036900001490860704700003C0442420249096A3F
:1036A0000143014A116270470010024010B5022028
:1036B00000F032F9012804D1022000F00FF8FEF7E3
:1036C000FFFB4FF40030FEF7B1FD00F01BFA0220C3
:1036D00000F004F800F016FA10BD00000249098855
:1036E0008143014A11807047042800400EB5042030
:1036F000FEF7F6FB4AF2A551884207D000F04CF8DD
:103700004AF2A5510420FEF7F9FB30E07B20FFF7D9
:1037100087FF10B97A20FFF783FFFFF70DFF012025
:10372000FFF7B6FF00F0F8F94FF40030FEF77EFD2A
:1037300000208DF808004FF40030019008208DF82B
:10374000090001208DF80A0001A8FEF789FD292053
:103750008DF8000001208DF8010002208DF8020094
:1037600001208DF803006846FFF75EF800BF0EBD2C
:103770000348008840F010000149088070470000AD
:1037800004280040034800884FF6EF7108400149C3
:10379000088070470428004010B501214FF0C05048
:1037A000FFF7A4FE0120FFF799FEFEF791FB012031
:1037B000FFF754FF00BF4120FFF732FF0028FAD087
:1037C0004FF48070FFF76AFF0120FFF761FF00F000
:1037D000A3F900F097F947F6FF7000F083F900F0C5
:1037E00091F910BD70B500260024002500F08AF87C
:1037F00006463A48B6FBF0F439480088A0423DD06E
:1038000037490C8040F2B27510E02846FEF7C8FF39
:1038100040B1B4F5B77F02D3A4F5B77404E0681CD7
:1038200085B206E0A4F26D14681C85B2B4F5B67FCB
:10383000EBD800BF2B480580002516E029480088FA
:10384000FEF7AEFF30B1012D04D11D2C01D31D3C7C
:1038500009E00CE02448405DA04203D82248405DC6
:10386000241A00E003E0681C85B21C2CE6D200BFDD
:10387000681C1E490870601C1D4908701748B6FB7B
:10388000F0F100FB11644FF46160B4FBF0F01949F2
:1038900008704FF46160B4FBF0F100FB11403C2173
:1038A000B0FBF1F0144908704FF46160B4FBF0F123
:1038B00000FB11403C21B0FBF1F201FB12000F496B
:1038C00008700B480278094801780648008800F023
:1038D00035F80B490870002070BD000080510100D0
:1038E0000800002000000020389800080200002096
:1038F0000300002004000020050000200600002036
:1039000007000020002103480188001F008841EAC9
:10391000004070471C28004001460020064A1288DB
:103920000A40D0B2044A121F12880A4012B108B1EC
:10393000012000E00020704704280040F0B5034655
:103940000C461546642093FBF0F0C6B2642093FB4E
:10395000F0F700FB1730C1B2132E02DD01F1640055
:10396000C1B20846CF1701EB977701EBA707BAB2B0
:10397000072092FBF0F700FB172082B25719601E58
:10398000DFF82CC01CF80000384482B2CF1701EBDE
:103990009777BF10A1EB87071FB9032C01DA501EE0
:1039A00082B2072092FBF0F700FB1720C0B2F0BDF7
:1039B0002C98000810B50120FFF7AEFF0120FFF79B
:1039C0008DFE00F09FF810BD29B1064A128802430F
:1039D000044B1A8004E0034A12888243014B1A8088
:1039E00070470000002800402DE9F05F06460F46B2
:1039F00090469946DDE90AAB0024B6F5FA6F03DB81
:103A000040F63300864202DD0120BDE8F09F40F21F
:103A1000B2750AE02846FEF7C3FE10B11F48044401
:103A200001E01F480444681C85B2B542F2DB781EF1
:103A3000C7B2002510E01B48405D40F2A321484377
:103A400004EBC0143046FEF7ABFE18B1012D01D1D6
:103A500015480444681C85B2BD42ECDBA8F10100A6
:103A600040F2A321484304EBC014C9EB4910C0EB5A
:103A7000092004EB0014CAEB0A1004EB80045C4438
:103A8000FFF78AFE4AF2A5510420FEF737FA2046D6
:103A900000F01AF800F036F80020B6E70085E201E1
:103AA0008033E101389800088051010000B50246DA
:103AB000FFF75EFE100C03490880091D0A80FFF71E
:103AC00061FE00BD2028004000B50246FFF750FE11
:103AD000100C03490880091D0A80FFF753FE00BD42
:103AE0001828004000B50246FFF742FEC2F303402B
:103AF00003490880091D0A80FFF744FE00BD00004D
:103B00000828004000BF0348008800F0200000287B
:103B1000F9D0704704280040074800884FF6F77135
:103B200008400549088000BF0348008800F00800ED
:103B30000028F9D0704700000428004070470000BA
:103B400070B5044600251BE004F0800020B1202160
:103B50000D48FEF7DDFC03E020210B48FEF7D6FC04
:103B6000FEF716FE40210848FEF7D2FCFEF710FED5
:103B700040210548FEF7CAFC6006040E681CC5B269
:103B8000082DE1DB70BD00000008014010B500F019
:103B900001F810BD0CB5002001900090334800687A
:103BA00040F480303149086000BF3048006800F4BC
:103BB000003000900198401C0190009818B90198BD
:103BC000B0F5A06FF1D12948006800F4003010B1C1
:103BD0000120009001E0002000900098012843D1CE
:103BE0002348006840F0100021490860084600683A
:103BF00020F0030008600846006840F002000860FA
:103C00001A484068194948600846406848600846B4
:103C1000406840F4806048600846406820F47C10AA
:103C200048600846406840F4E8104860084600686C
:103C300040F08070086000BF0C48006800F0007021
:103C40000028F9D00948406820F00300074948607F
:103C50000846406840F00200486000BF03484068E2
:103C600000F00C000828F9D10CBD00000010024043
:103C7000002002407047000010B51348006840F073
:103C800001001149086008464068104908400E4983
:103C90004860084600680E4908400B49086008461D
:103CA000006820F4802008600846406820F4FE0088
:103CB00048604FF41F008860FFF768FF4FF0006016
:103CC0000449086010BD0000001002400000FFF829
:103CD000FFFFF6FE08ED00E010B50121880700F0B7
:103CE000C8F820B30121880700F0B4F810488078A4
:103CF000642805DA0E488078401C0D49887016E06B
:103D000000200B498870084640783C2804DA0846B1
:103D10004078401C48700AE0002005494870084679
:103D200000783C2803DA08460078401C087010BD73
:103D30005F00002010B50121094800F09AF868B131
:103D40000848008840F400400649088001210448E2
:103D500000F080F80021024800F07FF810BD00005C
:103D600000040040140000207FB505460C460121E8
:103D70000220FFF7BBFBADF80450ADF80040002077
:103D8000ADF80600ADF8020069460D4800F08EF867
:103D9000012211460A4800F07DF80121084800F090
:103DA0005CF81D208DF80C0000208DF80D0001201E
:103DB0008DF80E008DF80F0003A8FEF735FD7FBDCE
:103DC0000004004010B5044644B10021064800F04C
:103DD0006AF80121044800F040F803E0002102489D
:103DE00000F03BF810BD0000000400401FB50121A9
:103DF0000846FFF77BFB0020ADF80A00ADF806008F
:103E00006420ADF8080041F61F40ADF80400002022
:103E10008DF80C0001A94FF0804000F047F8012117
:103E2000880700F014F801221146900700F032F8DC
:103E30001C208DF8000001208DF8030003208DF870
:103E400001008DF802006846FEF7EEFC1FBDCA4374
:103E500002827047CA430282704721B1028842F051
:103E60000102028004E002884FF6FE731A400280CD
:103E7000704730B50246002000230024158A05EA69
:103E80000103958905EA010413B10CB1012000E09A
:103E9000002030BD1AB183890B43838102E08389FE
:103EA0008B43838170478184704700000022028821
:103EB0001D4B98420ED01D4B98420BD0B0F1804F55
:103EC00008D01B4B984205D01A4B984202D01A4B8F
:103ED000984204D14FF68F731A404B881A43174B00
:103EE000984207D0164B984204D04FF6FF431A4031
:103EF000CB881A4302808B8883850B8803850A4B05
:103F000098420BD0094B984208D00E4B984205D0EE
:103F10000D4B984202D00D4B984201D10B7A03868B
:103F20000123838270470000002C014000340140CF
:103F30000004004000080040000C00400010004059
:103F4000001400400040014000440140004801408E
:103F500010B540F225511E4800F019FA002836D05D
:103F600040F225511A4800F0EAF9194800F0CAFA5F
:103F7000C4B21848007840B9AA2C27D101201549AD
:103F8000087000201449087020E0124800780128C9
:103F900010D112481049097844540F480078401C49
:103FA0000D4908700846007802280FDB02200949F5
:103FB00008700BE007480078022807D1AA2C05D129
:103FC00000200449087001200549087000BF10BD99
:103FD000003801401D0000201E00002016000020B7
:103FE0001800002070B505460E46002404E0285D48
:103FF00000F006F8601C84B2B442F8DB70BD00002B
:1040000010B504462146054800F081FA00BF802122
:10401000024800F0AFF90028F9D010BD0038014087
:1040200010B50446AA20FFF7EBFF5520FFF7E8FF85
:1040300001212046FFF7D6FF5520FFF7E1FFAA2018
:10404000FFF7DEFF10BD000010B5FFF7CBFBAA2085
:10405000FFF7D6FF5520FFF7D3FF0220FFF7D0FF71
:1040600007480078FFF7CCFF06480078FFF7C8FF45
:104070005520FFF7C5FFAA20FFF7C2FF10BD0000C3
:10408000040000200500002010B51EA12048FCF708
:1040900041FC18B91F48FFF7C3FF32E01EA11C48BE
:1040A000FCF738FC20B11EA11948FCF733FC18B905
:1040B0001D48FFF7B5FF24E01CA11548FCF72AFCBA
:1040C00098B11DA11248FCF725FC70B11DA1104844
:1040D000FCF720FC48B11FA10D48FCF71BFC20B1E8
:1040E0001EA10B48FCF716FC18B91E48FFF798FFF5
:1040F00007E01DA10648FCF70DFC10B91C48FFF7AE
:104100008FFF10BD4F76657263617374000000000D
:104110002C0E002019000020436C65617200000025
:1041200053756E6E790000001A00002048656176B4
:1041300079207261696E00004C6967687420726151
:10414000696E00004D6F646572617465207261690B
:104150006E00000053686F776572000053746F72D1
:104160006D0000001B000020436C6F756479000037
:104170001C00002010B540F22551244800F007F93A
:10418000002842D0214800F0BDF9C4B22048008880
:1041900000F4004058BB1E48008800F4804060B125
:1041A0000A2C03D000201A49088020E01848008813
:1041B00040F400401649088019E00D2C06D114483F
:1041C000008840F480401249088010E010480088C0
:1041D000C0F30D000F490C540D480088401C0C49D9
:1041E000088008460088C72801DD002008800848AC
:1041F000008800F4004040B105480088C0F30D007D
:104200000549088000200249088010BD0044004094
:1042100020000020BC0B00202200002010B586B03A
:10422000044601214804FFF761F901210420FFF74A
:104230006DF90420ADF8140003208DF81600182045
:104240008DF8170005A91948FEF7CCF80820ADF83D
:10425000140004208DF8170005A91448FEF7C2F8D1
:1042600026208DF8000003208DF801008DF8020053
:1042700001208DF803006846FEF7D6FA019400206D
:10428000ADF80800ADF80A00ADF80C00ADF810006C
:104290000C20ADF80E0001A9054800F0C7F8012177
:1042A000034800F05BF806B010BD000000080140B4
:1042B0000044004010B540F22551184800F067F85E
:1042C00020B340F22551154800F030F8134800F0B3
:1042D00019F9C4B21248008800F40040B0B910487F
:1042E0000088B0F5FA7F12DA00210E48FFF7DBFDF7
:1042F0000B48008810B90120FFF764FD08480188C9
:104300000088401C064A10800748445405E00448D1
:10431000008840F400400249088010BD0048004079
:104320001400002000040040C809002001F40072BD
:10433000B2F5007F00D100BFCA430280704710B5BC
:104340000022002340F66A14A14200D100BF0A12E5
:1043500001249440A3B2DC43048010BD21B18289C2
:1043600042F40052828104E082894DF6FF731A40C4
:104370008281704702460020B1F5007F00D100BF66
:1043800013880B400BB1012000E00020704770B58E
:104390000246002400230025002040F66A16B142A0
:1043A00000D100BFC1F3421501F01F03012606FA38
:1043B00003F3012D02D19689334006E0022D02D18C
:1043C000168A334001E0968A33400C12012606FA21
:1043D00004F41688344013B10CB1012000E0002031
:1043E00070BDF0B50346002400260025002040F6ED
:1043F0006A17B94200D100BF1846C1F3421401F058
:104400001F06012707FA06F5012C01D10C3004E044
:10441000022C01D1103000E014301AB107682F438C
:10442000076002E00768AF430760F0BD2DE9F04781
:1044300086B005460E460024A24600BFA1460027CE
:10444000B08900B100BF2F462C8A4CF6FF700440A3
:10445000F08804432C82AC894EF6F3100440B088F7
:1044600031890843718908430443AC81AC8A4FF613
:10447000FF400440B0890443AC8201A8FFF766F80E
:104480001F48874202D1DDF810A001E0DDF80CA042
:10449000A88900F4004040B10AEBCA0000EB0A1002
:1044A00031684900B0FBF1F807E00AEBCA0000EB05
:1044B0000A1031688900B0FBF1F86420B8FBF0F015
:1044C00004012009642101FB1089A88900F400403F
:1044D00040B1322000EBC900B0FBF1F000F0070062
:1044E000044308E0322000EB09106421B0FBF1F036
:1044F00000F00F0004432C8106B0BDE8F0870000F7
:104500000038014001468888C0F308007047C1F3B5
:1045100008028280704700BFFEE7490050EAC120D0
:1045200018BF04204A0D18BF40F0010040F2FF728E
:10453000B2EB515F08BF40F00200012808BF052020
:1045400070472DE9F0414F1E00EBC7010446D1E949
:10455000000115461E4637F006020DD02A463346A6
:1045600004F0D8FD7F1E04EBC703D3E9002304F059
:104570003BFB37F00602F1D1022F25D0042F13D0D8
:10458000062F18BFBDE8F0812A46334604F0C2FD6D
:10459000D4E90A2304F028FB2A46334604F0BAFD86
:1045A000D4E9082304F020FB2A46334604F0B2FD88
:1045B000D4E9062304F018FB2A46334604F0AAFD8A
:1045C000D4E9042304F010FB2A46334604F0A2FD8C
:1045D000D4E9022304F008FB2A46334604F09AFD8E
:1045E000D4E90023BDE8F04104F0FEBA00221346EE
:1045F0001046014904F0B4BB0000F03F04F0F4BAE7
:10460000002213461046114604F0AABB40F20132C4
:1046100000204FF0E04105F0C3B80000024A00203E
:10462000110705F0BDB8000001FDFFFF30380A2872
:1046300001D2012070470020704700BF704710B5BD
:10464000002407E04FF4FA70FDF769FC01F078F8F8
:10465000601CC4B2032CF5DB10BD000010B500F0E7
:1046600003FF18B100200949087002E00120074942
:104670000870002407E04FF4FA70FDF750FC01F0D9
:104680002DF9601CC4B2032CF5DB10BD2400002002
:104690007CB5FEF70BF90024012010231522002120
:1046A00000900D20FEF7A6FD012010231622002108
:1046B00000901D20FEF79EFD012010232A220021DC
:1046C00000905820FEF796FD012010232B22002198
:1046D00000906820FEF78EFD012000237F2210212C
:1046E00000901846FEF772FB012000237F222E2146
:1046F00000901846FEF76AFB012010232822302183
:1047000000901846FEF776FD012010232922302163
:1047100000904020FEF76EFDFEF784FC32E19A48DF
:10472000007801287ED1994800680A2190FBF1F0B9
:1047300090FBF1F201FB12050120102103462A46ED
:10474000CDE9001011210020FEF7D6FD8F4800684A
:104750000A2190FBF1F201FB120501201021034612
:104760002A46CDE9001011210820FEF7C5FD0120E1
:1047700010232D22112100901846FEF79DFC0120E8
:104780001021CDE900108148022311214268182030
:10479000FEF7B2FD012010232D22112100902820C8
:1047A000FEF78AFC01201021CDE900107748022392
:1047B000112182683020FEF79FFD01201021CDE9F4
:1047C0000010724802231E21C2680020FEF794FDEB
:1047D000012010233A221E2100901846FEF76CFC9F
:1047E00001201021CDE90010684802231E21026932
:1047F0001820FEF781FD012010233A221E2100908F
:104800002820FEF759FC01201021CDE900105F4857
:1048100002231E2142693020FEF76EFD5C480078BD
:10482000012800E088E010D100205949087059495A
:10483000087059480078401C5749087008460078AD
:10484000032818D10120087015E054480078012889
:1048500005D10020514908704F4804780BE05048BA
:104860000078012807D100204D4908704949087097
:10487000FEF71CF87CBD4B480078012807D11023B7
:1048800028221B2100906020FEF7B4FC0AE0454876
:10489000007838B90120102329221B2100906020C4
:1048A000FEF7A8FC3C480078012802D0022826D157
:1048B00012E0012010233CA2302100903820FEF7A6
:1048C000CCFD012010232A22302100900820FEF781
:1048D000F3FBFEF7A7FB12E00120102332A23021E8
:1048E00000900820FEF7B9FD012010232A22302174
:1048F00000903820FEF7E0FBFEF794FB00BF00BFFE
:10490000012C0BD1012027490870FFF7FBF801218A
:104910000220FFF759F8FFF7F5F833E0022C31D108
:10492000002020490870FFF7EDF800210220FFF772
:104930004BF8FFF7E7F825E0012010232F2216217E
:1049400000901C20FEF756FC0120102320221B2182
:1049500000906020FEF74EFCFEF764FB11E010486B
:10496000007801280DD100200D4908700B4908700E
:1049700008490870064908700C490870FDF796FF51
:1049800078E7ECE7CBE60000540000205813002045
:104990000C0000200B000020550000200A00002021
:1049A0000D000020520000202000000053000020D5
:1049B0002DE9FC4101240025FDF778FF002010239C
:1049C000202201460090FEF715FC002010232C2227
:1049D000014600901846FEF70DFC002010232D2202
:1049E000014600902020FEF705FC0020102328221D
:1049F000014600903020FEF7FDFB002010232E2200
:104A0000014600904020FEF7F5FB00201023152200
:104A1000014600905020FEF7EDFB002010231622E7
:104A2000014600906020FEF7E5FB002010232022C5
:104A3000014600907020FEF7DDFB012010232C22A0
:104A4000162100901420FEF7D5FB012010232D2203
:104A50002A2100901420FEF7CDFB75E03B4800783A
:104A600001280CD1002039490870394908703949AA
:104A70000870601CC4B2032C0DD101240BE0364831
:104A80000078012807D100203349087030490870A8
:104A9000304908702546012C02D0022C26D112E0A4
:104AA000012010232DA2162100900020FEF7D5FC36
:104AB000012010232AA22A2100900020FEF7CDFC1D
:104AC000FEF7B0FA12E00120102325A21621009073
:104AD0000020FEF7C2FC0120102320A22A21009012
:104AE0000020FEF7BAFCFEF79DFA00BF00BF012DC3
:104AF00022D11C48007D1B49097C1A4FCDE90010CA
:104B00003B7B3A7A39793F88B8B2FDF7A7FD064674
:104B10003046FEF7CBFFFEF7F5FF01210220FEF73E
:104B200053FFFEF7EFFF01200F4908700F4908708F
:104B3000FDF7BCFEBDE8FC81022D05D1FDF7B6FEF8
:104B400000200A490870F5E788E700000C00002003
:104B50000B0000200D0000200A0000202A000000A9
:104B600020000000581300205200002054000020B4
:104B700038B50124E6E000201023202201460090F1
:104B8000FEF738FB00201023202201460090184633
:104B9000FEF730FB00201023202201460090104633
:104BA000FEF728FB0020102330220146009010461B
:104BB000FEF720FB00201023312201460090402008
:104BC000FEF718FB00201023202201460090502001
:104BD000FEF710FB002010232022014600906020E9
:104BE000FEF708FB002010232022014600907020D1
:104BF000FEF700FB012010231B221621009018460F
:104C0000FEF7F8FA012010231C2216210090202024
:104C1000FEF7F0FA01201023152216210090302013
:104C2000FEF7E8FA012010231622114600904020DA
:104C3000FEF7E0FA0120102326222A2100901846D0
:104C4000FEF7D8FA0120102327222A2100902020E5
:104C5000FEF7D0FA0120102315222A2100903020DF
:104C6000FEF7C8FA0120102316222A2100904020C6
:104C7000FEF7C0FA34480078012807D102F0EAFABA
:104C8000FFF796FE00203049087008E02E480078B3
:104C9000022804D1FFF7FCFC00202B4908702B48A8
:104CA000007801280AD10020284908702849087096
:104CB000601CC4B2032C19D1012417E025480078E8
:104CC000012807D1002023490870214908701E4897
:104CD00004700BE020480078012807D100201E490D
:104CE00008701B490870FDF7E1FD38BD012C02D0AA
:104CF000022C26D112E0012010232A221621009036
:104D00000020FEF7D9F90120102320222A2100904B
:104D10000020FEF7D1F9FEF785F912E001201023FB
:104D20002022162100900020FEF7C6F90120102352
:104D30002A22114600900020FEF7BEF9FEF772F914
:104D400000BF00BF17E70000530000200C00002048
:104D50000B0000200A0000200D00002010B500BF4D
:104D60001648008800F040000028F9D02B20144994
:104D700008800F20FDF7D3F800BF1048008800F02E
:104D800040000028F9D02B200D4908800F20FDF7A6
:104D9000C6F800BF0948008800F040000028F9D09C
:104DA0002B20074908804FF4FA70FDF7B8F8142259
:104DB00004A105A000F01EFB10BD0000003801405A
:104DC000044800404F4B00004154000070B50446B9
:104DD00022E02568A08900F4807020B9A06810B195
:104DE000A068FFF7F3FFA08900F4807028B920695C
:104DF00018B10B49206909688847A08900F4007040
:104E000028B9206A18B10649206A096888472046EF
:104E10000349096888472C46002CDAD170BD000090
:104E2000A80900200246906801E0491E006808B108
:104E30000029FADC704701468A68002001E0401C26
:104E40001268002AFBD170470148006870470000D3
:104E5000A009002070B505460E46AC6800E0246845
:104E60002CB13146206A00F03BF90028F7D12046EA
:104E700070BD000010B52820054909688847044620
:104E80001CB128212046FBF71EFD204610BD000066
:104E9000A409002010B5044600221146204600F067
:104EA00001F810BD2DE9F04780460D461646002456
:104EB000FFF7E0FF07460020124908600FB9BDE880
:104EC000F087404603F03EF981464946384601F0F6
:104ED0003FFC044624B93846FFF778FF0020EEE790
:104EE00066B1204603F02EF90446207830B13846EA
:104EF000FFF76CFF034804600020E0E705B12C6079
:104F00003846DCE7A00900202DE9F84F80460E4620
:104F10004046FFF7BFFF07464FB9FFF795FF8346AF
:104F2000594642A003F04CFB0120BDE8F88F45A193
:104F30003846FFF78FFF81464846FFF77CFF009019
:104F400042A0009903F03CFB00214846FFF76AFFAE
:104F5000B0F1000A63D045A15046FFF77BFF051E64
:104F600044D0434803F02CFB42A12846FFF772FFD0
:104F7000041E0FD041A0D4E90313226A03F020FBE2
:104F80002069FBF7BFFB83465A4606F1E000216922
:104F9000FBF722FC49A12846FFF75CFF041E0FD057
:104FA00036A0D4E90313226A03F00AFB2069FBF759
:104FB000A9FB83465A4606F580702169FBF70CFC75
:104FC00040A12846FFF746FF041E0FD02BA0D4E9CE
:104FD0000313226A03F0F4FA2069FBF793FB83467C
:104FE0005A4606F590702169FBF7F6FB38A150464A
:104FF000FFF730FF051E12D0384803F0E1FA1FA07A
:10500000D5E903132A6A03F0DBFA2869FBF77AFB78
:1050100083465A4606F5A0702969FBF7DDFB00BF01
:105020003846FFF7D3FE00207FE700004572726F1D
:1050300072206265666F72653A205B25735D200D94
:105040000A000000726573756C747300634A534FF5
:105050004E5F476574417272617953697A653A208F
:1050600073697A653D2564200D0A00006E6F770034
:10507000CCC800087465787400000000634A534F80
:105080004E5F4765744F626A6563744974656D3A33
:1050900020747970653D25642C20737472696E6785
:1050A0002069732025732C76616C75657374726941
:1050B0006E673D2573200D0A00000000636F646574
:1050C0000000000074656D70657261747572650032
:1050D0006C6173745F757064617465001CC900084D
:1050E00070B504460D462CB9AC4201D0012070BD0C
:1050F0000020FCE70DB90120F9E705E0207808B9A8
:105100000020F4E7641C6D1C2078FBF7F0F80646DD
:105110002878FBF7ECF88642F0D02078FBF7E7F828
:1051200006462878FBF7E3F8301AE0E72DE9F04768
:1051300007463846FFF7AEFE06464EB9FFF784FE37
:105140008046414616A003F03BFA0120BDE8F087F7
:10515000B5681DE0D5F8208017A14046FBF7DAFBC3
:10516000A0B917A12846FFF775FE041E0ED017A0A0
:10517000D4E90313226A03F023FA2069FBF7C2FA89
:1051800081464A4621482169FBF726FB2D6800BF6E
:10519000002DDFD13046FFF719FE00BFD6E7000033
:1051A0004572726F72206265666F72653A205B2588
:1051B000735D200D0A000000726573756C74000049
:1051C00074696D657374616D70000000634A534FBC
:1051D0004E5F4765744F626A6563744974656D3AE2
:1051E00020747970653D25642C20737472696E6734
:1051F0002069732025732C76616C756573747269F0
:105200006E673D2573200D0A00000000CC0E0020C3
:105210002DE9FC4101240025FDF748FB0020102367
:10522000202201460090FDF7E5FF002010232C22EC
:10523000014600901846FDF7DDFF002010232D22C7
:10524000014600902020FDF7D5FF002010233222D8
:10525000014600903020FDF7CDFF002010233322BF
:10526000014600904020FDF7C5FF002010231B22BF
:10527000014600905020FDF7BDFF002010231C22A6
:10528000014600906020FDF7B5FF0020102320228A
:10529000014600907020FDF7ADFF012010232C2265
:1052A000162100901420FDF7A5FF012010232D22C8
:1052B0002A2100901420FDF79DFF62E0314800781C
:1052C00001280CD100202F4908702F4908702F4960
:1052D0000870601CC4B2032C0DD101240BE02C48D3
:1052E0000078012807D10020294908702649087054
:1052F000264908702546012C02D0022C26D112E046
:105300000120102323A2162100900020FEF7A5F80B
:105310000120102320A22A2100900020FEF79DF8F2
:10532000FDF780FE12E0012010231BA21621009041
:105330000020FEF792F80120102316A22A210090E7
:105340000020FEF78AF8FDF76DFE00BF00BF012DBB
:1053500012D11248007D1149097C104FCDE900108F
:105360003B7B3A7A39793F88B8B2FEF73DFB064677
:10537000FDF79CFABDE8FC81022D02D1FDF796FAFB
:10538000F8E79BE70C0000200B0000200D00002038
:105390000A0000202A0000002000000070130020F6
:1053A000002106E00A2100BF0A1EA1F1010399B203
:1053B000FAD1021EA0F1010398B2F3D170470000A8
:1053C00070B5044600250948008800F4004058B133
:1053D000002006490988C1F30E01054A50542146B0
:1053E0001046FBF77DF90546284670BD14000020E5
:1053F000C80900202DE9F04106460D461446002755
:10540000002013490880314612A0FAF78FFFE5B15A
:10541000DCB113E00A20FCF782FD0D48008800F49F
:10542000004058B12846FFF7CBFF20B129460BA01A
:1054300003F0C6F806E0002005490880601E80B22F
:10544000041EE7D100BF04B901273846BDE8F0814A
:105450001400002025730D0A0000000041434B3A60
:1054600025730D0A0000000070B5012500243221CB
:10547000002000F0F9FD06462AA003F0A1F800BFC5
:1054800014222BA12BA0FFF7B5FF0028F8D12AA0EA
:1054900003F096F8642226A12CA0FFF7ABFF2EA004
:1054A00003F08EF8322222A12FA0FFF7A3FF4FF4C2
:1054B0007A70FCF734FD4FF47A70FCF730FD4FF44E
:1054C0007A70FCF72CFD2AA003F07AF8142218A1B8
:1054D0002CA0FFF78FFF2E4803682E482EA10268EC
:1054E0003046FAF72FFF2A4802682A4801682FA0A1
:1054F00003F066F808E04FF4FA70FCF710FD641C46
:10550000082C01DD0A2070BD4FF496722EA13046A2
:10551000FFF770FF0028EED1314600F093FD002028
:10552000F1E7000073656E643A41540D0A00000013
:105530004F4B00004154000073656E643A41542B98
:1055400043574D4F44453D310D0A000041542B4314
:10555000574D4F44453D310073656E643A41542BBD
:105560005253540D0A00000041542B525354000072
:1055700073656E643A41542B4349504D55583D3044
:105580000D0A000041542B4349504D55583D300001
:105590002C0000202800002041542B43574A415042
:1055A0003D222573222C22257322000073656E6430
:1055B0003A41542B43574A41503D222573222C2215
:1055C0002573220D0A0000005749464920474F54D1
:1055D0002049500008B5FDF769F90020102320226A
:1055E00001460090FDF706FE002010233A220146F6
:1055F00000901846FDF7FEFD002010233B220146D7
:1056000000902020FDF7F6FD002010233C220146EB
:1056100000903020FDF7EEFD002010233D220146D2
:1056200000904020FDF7E6FD002010233E220146B9
:1056300000905020FDF7DEFD002010233F220146A0
:1056400000906020FDF7D6FD0020102320220146A7
:1056500000907020FDF7CEFD012010233622162188
:1056600000900020FDF7C6FD0120102337221621EF
:1056700000901846FDF7BEFD012010233A221621A6
:1056800000902020FDF718FD0120102320A21621F4
:1056900000903020FDF7E1FE0120102338222C215C
:1056A00000900020FDF7A6FD0120102339222C21B7
:1056B00000901846FDF79EFD012010233A222C2170
:1056C00000902020FDF7F8FC0120102340222C211F
:1056D00000903020FDF78EFD0120102341222C2167
:1056E00000904020FDF786FDFDF79CFC0FE0094887
:1056F000007801280BD1002006490870064908707F
:105700000649087006490870FDF7D0F808BDEEE7B5
:10571000312E30000D0000200A0000200B00002078
:105720000C00002000BF054A128802F04002002A47
:10573000F9D0C2B2014B1B1D1A80704700480040CF
:1057400010B52821002000F08FFC3449086034A3F4
:1057500034A238A131480068FAF7F4FD2F480168F7
:105760003BA002F02DFF64223CA12C480068FFF70B
:1057700041FE0446012C06D128480168002000F0B3
:1057800061FC012010BD4FF49670FCF7C8FB34A0FB
:1057900002F016FF642231A136A0FFF72BFE002095
:1057A0003849088038A002F00BFF64222BA13BA0EF
:1057B000FFF720FE3C4802F003FF3B48FAF7B6FD36
:1057C0001420FCF7ACFB00202E4908804FF47A70BF
:1057D000FCF7A5FB2B48008800F4004030B1002006
:1057E00028490988C1F30E01304A50542F4930A08E
:1057F00002F0E6FE2D48FFF799FCFFF7AFFA2FA065
:1058000002F0DEFE322215A131A0FFF7F3FD0348BE
:105810000168002000F016FC0020B3E730000020F3
:10582000383000006170692E6B3738302E636F6D31
:105830000000000041542B43495053544152543D01
:1058400022544350222C222573222C257300000061
:1058500073656E643A25730D0A0000004F4B00001B
:1058600073656E643A41542B4349504D4F44453D56
:10587000310D0A0041542B4349504D4F44453D31B1
:10588000000000001400002073656E643A41542B40
:1058900043495053454E440D0A00000041542B43E8
:1058A000495053454E4400006CC90008C809002007
:1058B000444154413D25730D0A00000073656E6438
:1058C0003A41542B434950434C4F53450D0A000075
:1058D00041542B434950434C4F53450010B52821A8
:1058E000002000F0C1FB3649086036A336A23BA178
:1058F00033480068FAF726FD314801683EA002F0FF
:105900005FFE64223FA12E480068FFF773FD044646
:10591000012C06D12A480168002000F093FB0120E9
:1059200010BD4FF49670FCF7FAFA37A002F048FE6B
:10593000642234A139A0FFF75DFD00203B490880B7
:105940003BA002F03DFE64222EA13EA0FFF752FDD7
:105950003F4802F035FE3E48FAF7E8FC1420FCF719
:10596000DEFA0020314908804FF47A70FCF7D7FA4C
:105970002E48008800F4004030B100202B490988EF
:10598000C1F30E01334A5054324933A002F018FEDD
:1059900034493048FFF7B8FA2E48FFF7C7FBFFF746
:1059A000DDF931A002F00CFE322216A133A0FFF780
:1059B00021FD03480168002000F044FB0020AFE710
:1059C00030000020383000006170692E73656E6908
:1059D00076657273652E636F6D00000041542B4332
:1059E000495053544152543D22544350222C2225B5
:1059F00073222C257300000073656E643A25730DC5
:105A00000A0000004F4B000073656E643A41542B4E
:105A10004349504D4F44453D310D0A0041542B43FD
:105A200049504D4F44453D31000000001400002016
:105A300073656E643A41542B43495053454E440DAF
:105A40000A00000041542B43495053454E44000086
:105A5000E0C90008C8090020444154413D25730DA8
:105A60000A0000004C0D002073656E643A41542B0F
:105A7000434950434C4F53450D0A000041542B43BA
:105A80004950434C4F53450008B54FF4A060FCF714
:105A900003FFFCF7ABFEFDF72BFAFCF7EDF9FCF783
:105AA00029FCFEF7A3F9FDF721FE4FF41650FEF78F
:105AB000B5FB4FF4E13002F0FBFD4FF4165002F05D
:105AC000A7FDFCF7F3FE01201023212216210090F0
:105AD0001846FDF78FFB012010232222162100908B
